:020000040800F2
:10000000881100208DA200085555000837A9000866
:10001000575500085B5500085F55000800000000B8
:100020000000000000000000000000009FA2000887
:100030006355000800000000BFA80008AB5400088A
:10004000A7A20008A7A20008A7A20008A7A200086C
:10005000A7A20008A7A20008EF590008015A00084B
:10006000135A0008255A0008375A0008A7A20008AA
:10007000A7A20008A7A20008A7A20008A7A200083C
:10008000A7A20008A7A20008A7A20008A7A200082C
:10009000A7A200080000000000000000495A000864
:1000A0000000000000000000000000000000000050
:1000B000A7A20008A7A20008A7A20008A7A20008FC
:1000C000A7A20008A7A20008A7A20008A7A20008EC
:1000D000A7A20008D35C0008E55C0008A7A20008FE
:1000E000775A0008A7A20008A7A20008DFF80CD0E2
:1000F00015F0DAFE004800470D02000888110020C4
:10010000704719480068704770B504460AF0C0FB94
:1001100005461548046028460AF0BEFB70BD10B5C0
:1001200011480068401C1049086003F096FF04461F
:10013000A06C401EA064A06C18B9606CA06404F0B0
:100140006EF904F038FD10BD0146002902DA4FF0C7
:10015000FF3007E064224A4302F2E7324FF47A7339
:1001600092FBF3F070470000000000200020704771
:1001700000207047002070470020704710B5274CC2
:1001800002E020688047241D25488442F9D310BD31
:1001900010B5234C02E020688047241D214884428A
:1001A000F9D310BD10B50446FFF7F2FF04F016FFB7
:1001B00010BD1CB514200A214FF480630022CDE944
:1001C0000010AFF21F0118A004F0C7F8044624B9CC
:1001D000CA22174917A002F0E1FE204604F047F8B2
:1001E0001CBD10B50AF054FB05F069F902F001FEE0
:1001F00004F0C1FD03F0AFFDFFF7DBFF04F0C7FD26
:1002000000F058FB03F0EDFD002010BD10B50AF022
:100210003FFBFFF7E6FF002010BD0000288D01081E
:10022000388D01084C8D01086D61696E0000000079
:10023000D26D010874696420213D2052545F4E55EF
:100240004C4C00002DE9F041064603F006FF08B1D2
:1002500003F06FFE092003F0A5FB044624B97C22BD
:10026000F549F6A002F09AFE656810E0A5F10C07CA
:1002700008223146384602F0DEFA38B903F0EDFEC6
:1002800008B103F064FE3846BDE8F0812D68201DFA
:100290008542EBD103F0E1FE08B103F058FE0020E7
:1002A000F2E770B504460D46164614B94FF0FF301C
:1002B00070BD2846FFF7C6FF10B14FF0FF30F7E7DB
:1002C0002A460921204603F07FFBE6820020A07623
:1002D000208300BFECE710B5044624B95222DD4963
:1002E000DDA002F05BFE204603F046FC092804D0A6
:1002F0005322D849DCA002F051FE204603F02BFC2B
:1003000020B95422D349E7A002F048FE204603F06A
:1003100088FB002010BD002070472DE9F041064603
:100320000C464027E01C20F003042744384602F026
:1003300079FF05462DB140220021284602F08DF9B3
:100340002E752846BDE8F08110B5044624B9BA22BE
:10035000DE49C1A002F022FE204603F00DFC092870
:1003600004D0BB22D949C0A002F018FE204603F0F9
:10037000F2FB20B1BC22D549D5A002F00FFE2046E9
:1003800003F04FFB204603F052F810BD70B5044651
:10039000002524B9D122DB49AFA002F0FFFD606A3D
:1003A00090B1A07D00F0100070B92046616A8847C6
:1003B00005462DB12A462146D3A002F0EAFC03E00F
:1003C000E08A40F01000E082284670BD70B5044617
:1003D0000E46002524B9F422D9499FA002F0DEFD83
:1003E000204603F0C9FB092804D0F522D4499EA079
:1003F00002F0D4FDA07D00F0100088B9606A58B109
:100400002046616A8847054635B12A462146BEA086
:1004100002F0BFFC284670BDE08A40F01000E08288
:10042000A07D00F0080030B1207E00F0080010B17F
:100430006FF00600EFE7A06A28B131462046A26AB5
:100440009047054603E040F60F70304020830DB121
:10045000A81D70B9208B40F008002083A07E401CAE
:10046000A076A07E28B940F22312B549B5A002F0CB
:1004700095FD2846CFE770B5044600252CB940F21B
:100480003512B54974A002F089FD204603F074FBD3
:10049000092805D04FF49B72AF4973A002F07EFD8E
:1004A000A07E10B94FF0FF3070BDA07E401EA07638
:1004B000A07E08B10020F7E7E06A18B12046E16AA3
:1004C000884705460DB1A81D08B90020208328469D
:1004D000EAE72DE9F04104460D4616461F462CB9C1
:1004E00040F25F129D495CA002F058FD204603F0E7
:1004F00043FB092805D04FF4B07298495AA002F086
:100500004DFDA07E30B94FF0FF3002F085F800209D
:10051000BDE8F081206B38B13B4632462946204683
:10052000D4F830C0E047F3E76FF0050002F074F84C
:100530000020EDE72DE9F04104460D4616461F4622
:100540002CB94FF4C372864943A002F027FD204620
:1005500003F012FB092805D040F28712804942A01F
:1005600002F01CFDA07E30B94FF0FF3002F054F8CD
:100570000020BDE8F081606B38B13B463246294629
:100580002046D4F834C0E047F3E76FF0050002F0EE
:1005900043F80020EDE770B504460D4616462CB929
:1005A00040F2A7126F492CA002F0F8FC204603F09D
:1005B000E3FA092805D04FF4D4726A492AA002F060
:1005C000EDFCA06B28B1324629462046A36B984724
:1005D00070BD6FF00500FBE770B504460D462CB901
:1005E00040F2C11260491CA002F0D8FC204603F082
:1005F000C3FA092805D04FF4E1725B491AA002F052
:10060000CDFCE561002070BD70B504460D462CB9E7
:1006100040F2D712554910A002F0C0FC204603F06A
:10062000ABFA092805D04FF4EC7250490EA002F045
:10063000B5FC2562002070BDFB6D0108696E666F18
:10064000726D6174696F6E20213D2052545F4E556A
:100650004C4C0000E66D010864657620213D205277
:10066000545F4E554C4C000072745F6F626A656354
:10067000745F6765745F7479706528266465762D8C
:100680003E706172656E7429203D3D2052545F4F6B
:10069000626A6563745F436C6173735F4465766916
:1006A0006365000072745F6F626A6563745F69738B
:1006B0005F73797374656D6F626A6563742826640D
:1006C00065762D3E706172656E7429000A6E0108B0
:1006D00072745F6F626A6563745F69735F73797365
:1006E00074656D6F626A65637428266465762D3E55
:1006F000706172656E7429203D3D2052545F464101
:100700004C5345001C6E0108546F20696E69746972
:10071000616C697A65206465766963653A25732042
:100720006661696C65642E20546865206572726F1D
:100730007220636F64652069732025640A000000DD
:100740002B6E01086465762D3E7265665F636F757A
:100750006E7420213D2030003A6E01084A6E010877
:10076000596E0108696E01087B6E0108956E0108DB
:100770002DE9F04105466FF002070AF089F80646B8
:10078000002409E0644850F8240020B9624840F889
:100790002450002702E0641C042CF3D300BF304631
:1007A0000AF07AF83846BDE8F0812DE9F0410546B7
:1007B0006FF005070AF06CF8064600240BE0564877
:1007C00050F82400A84205D10020534941F82400E4
:1007D000002702E0641C042CF1D300BF30460AF06D
:1007E0005BF83846BDE8F08170B54BE000BF0AF019
:1007F0004FF8064601F0EEFE40B1484948A002F02D
:10080000C8FAA022454950A002F0C8FB30460AF0C1
:1008100043F800BF0AF03CF8054600F075F818B33D
:100820004A480068A0F1140404F11400D0E9002142
:100830005160D0E9001211604060006000BF03F019
:1008400078FBA06F10B12046A16F8847204603F0C7
:1008500082F9012805D103F07AFB28460AF01CF83A
:1008600070BD03F074FB03E028460AF015F8F7E7C3
:1008700028460AF011F8A06A02F0D9FD204603F0DC
:100880003EF900BF00F040F80028AFD100BFE7E715
:100890000FE0002408E0204850F8240018B11E4959
:1008A00051F824008047641C042CF4D3FFF79CFF0C
:1008B00000BFEEE710B586B000241CE0224624A15C
:1008C00004A802F0C7FA20211F22CB00224800EB27
:1008D0000420CDE9013203910090204901EBC410BE
:1008E00000231F4A04A903F060FC1C4901EBC4105B
:1008F00003F0BDFC641C002CE0D006B010BD00214C
:10090000164800EBC110704710490868884201D0B2
:10091000012070470020FCE70C060020AF6E0108A4
:1009200046756E6374696F6E5B25735D20736861D5
:100930006C6C206E6F74206265207573656420692D
:100940006E204953520A00003000000000010020D0
:100950007469646C652564000C0500208C0400201B
:10096000910800084268116042684A60416008606E
:1009700070472DE9F04105460C469046204603F0AD
:1009800005FEB8F1000F03D0B8F1010F23D105E047
:1009900004F114012846FFF7E5FF1CE02E680FE084
:1009A000A6F1140794F8350097F83510884206DA56
:1009B00004F1140107F11400FFF7D4FF02E03668D8
:1009C000AE42EDD100BFAE4204D104F1140128467D
:1009D000FFF7C8FF00BF00BF0020BDE8F08170B581
:1009E00005460EE009F054FF06462868A0F11404FD
:1009F0004FF0FF302063204603F0FCFB304609F047
:100A00004BFF284601F089FD0028EBD0002070BD87
:100A10002DE9F04104460D4616461F4624B9CB2267
:100A2000FD49FEA002F0BAFA2A460221204602F051
:100A3000CBFF204601F079FDA68367720020BDE858
:100A4000F08110B5044624B9E922F849F3A002F078
:100A5000A5FA204603F090F8022804D0EA22F349D0
:100A6000F34802F09BFA204603F075F820B9EB2218
:100A7000EE49F0A002F092FA04F11400FFF7AFFF84
:100A8000204602F0CEFF002010BD2DE9F0410546C2
:100A90000E46174600BF09F0FBFE804601F09AFDA6
:100AA00048B1F049F0A002F074F940F20712ED49A4
:100AB000F7A002F073FA404609F0EEFE00BF2946A7
:100AC000022002F0CDFF044614B92046BDE8F081B3
:100AD000204601F02AFDA68367722046F6E770B52E
:100AE000044600BF09F0D4FE054601F073FD48B18D
:100AF000E849DDA002F04DF94FF49372E549E4A016
:100B000002F04CFA284609F0C7FE00BF2CB940F2AB
:100B10002912E049C1A002F041FA204603F02CF866
:100B2000022805D04FF49572DA49C14802F036FA2E
:100B3000204603F010F828B140F22B12D549D6A078
:100B400002F02CFA04F11400FFF749FF204602F0EE
:100B5000D6FF002070BD2DE9F34105462DB940F2C6
:100B60004712DC49ADA002F019FA284603F004F858
:100B7000022805D04FF4A472D649AD4802F00EFA0F
:100B800000BFD548006818B12846D349096888478E
:100B900000BF09F07DFE064600BF00BFA88B0028FD
:100BA00006DDA88B401EA883304609F075FE57E08D
:100BB000019830B9304609F06FFE6FF00100BDE8D2
:100BC000FC8100BF09F064FE074603F046FA48B90D
:100BD000C049C2A002F0DDF84FF4B472BD49ACA028
:100BE00002F0DCF900BF09F053FE804601F0F2FC90
:100BF00048B1B8499CA002F0CCF84FF4B472B549A2
:100C0000A3A002F0CBF9404609F046FE00BF3846EB
:100C100009F042FE00BF03F020FA044600202063E2
:100C200000BF00BF6A7A214605F11400FFF7A1FE5C
:100C3000019800280BDD00BF00BF01AA002104F1CC
:100C40004C0003F087FF04F14C0003F0B3FE304684
:100C500009F022FE03F008F9206B08B1206BAEE723
:100C600000BFAC48006818B12846AA4909688847FF
:100C700000BF0020A3E710B5044600212046FFF77F
:100C80006AFF10BD70B504462CB94FF4DA72A24960
:100C900062A002F083F9204602F06EFF022805D020
:100CA00040F2B5129C49624802F078F900BF9B48B7
:100CB000006818B1204699490968884700BF002597
:100CC00009F0E6FD064600BF00BF04F1140001F084
:100CD00024FC28B904F1140001F02FFC012502E0E6
:100CE000A08B401CA083304609F0D6FD012D01D118
:100CF00003F0BAF8002070BD2DE9F04104460E461D
:100D000015462CB940F2E512854944A002F046F997
:100D1000204602F031FF022805D04FF4F3728049DB
:100D2000434802F03BF9012E10D12F4609F0B0FDE7
:100D3000804604F11400FFF752FEA783404609F0F5
:100D4000ABFD03F091F80020BDE8F0814FF0FF30DB
:100D5000FAE770B504460D4616462CB940F2122249
:100D6000704971A002F01AF92A460321204602F0C8
:100D70002BFE204601F0D9FB0120A0830020206239
:100D8000FF20A0770020E077667270BD10B50446A2
:100D90002CB940F23222694963A002F0FFF82046E4
:100DA00002F0EAFE032805D040F23322634964488A
:100DB00002F0F4F8204602F0CEFE28B94FF40D728E
:100DC0005E4960A002F0EAF804F11400FFF707FEA4
:100DD000204602F026FE002010BD2DE9F041054618
:100DE0000E4600BF09F054FD074601F0F3FB48B181
:100DF00061491DA001F0CDFF40F24F225E4924A0C1
:100E000002F0CCF8384609F047FD00BF2946032020
:100E100002F026FE0446B1E0C56E010873656D2040
:100E2000213D2052545F4E554C4C0000D16E0108BC
:100E3000607D010872745F6F626A6563745F6973D5
:100E40005F73797374656D6F626A65637428267366
:100E5000656D2D3E706172656E742E706172656E87
:100E600074290000DF6E010846756E6374696F6E49
:100E70005B25735D207368616C6C206E6F742062FB
:100E800065207573656420696E204953520A00001D
:100E900030000000ED6E010872745F6F626A656376
:100EA000745F69735F73797374656D6F626A65638C
:100EB00074282673656D2D3E706172656E742E7098
:100EC0006172656E7429203D3D2052545F46414C4D
:100ED00053450000FB6E0108E400002046756E6378
:100EE00074696F6E5B25735D207368616C6C206E36
:100EF0006F742062652075736564206265666F7229
:100F000065207363686564756C65722073746172C3
:100F1000740A0000E8000020076F0108EC000020C0
:100F2000166F0108256F01086D7574657820213DE5
:100F30002052545F4E554C4C00000000336F0108A6
:100F4000347E010872745F6F626A6563745F6973EF
:100F50005F73797374656D6F626A65637428266D5B
:100F6000757465782D3E706172656E742E70617255
:100F7000656E742900000000436F010814B9204613
:100F8000BDE8F081204601F0D0FA0120A0830020C6
:100F90002062FF20A0770020E07766722046EFE70E
:100FA00070B5044600BF09F073FC054601F012FB62
:100FB00058B1FD49AFF2501001F0EBFE4FF41C7236
:100FC000F949AFF2341001F0E9FF284609F064FC5A
:100FD00000BF34B940F27322F349AFF2B40001F01C
:100FE000DDFF204602F0C8FD032805D04FF41D7236
:100FF000ED49EE4801F0D2FF204602F0ACFD28B1E9
:1010000040F27522E849EAA001F0C8FF04F114009B
:10101000FFF7E5FC204602F072FD002070BD2DE9CF
:10102000F341044600BF09F033FC074603F015F80E
:1010300058B9EF49AFF25C1001F0ABFE40F29122DB
:10104000EB49AFF2B41001F0A9FF00BF09F020FC9A
:10105000804601F0BFFA58B1E549AFF2F41001F053
:1010600098FE40F29122E249AFF2DC1001F096FFC7
:10107000404609F011FC00BF384609F00DFC00BFE6
:1010800034B94FF42572DA49AFF2641001F086FFEB
:10109000204602F071FD032805D040F29522D44984
:1010A000C24801F07BFF02F0D8FF054609F0F0FBD3
:1010B000064600BFCF48006818B12046CD490968F0
:1010C000884700BF00BF00BF00202863206AA842F5
:1010D00003D1E07F401CE0774EE000BFA08B0028EA
:1010E0000ADDA08B401EA083256295F83500A0770D
:1010F000E07F401CE0773FE0019848B96FF00100C5
:101100002863304609F0C8FB6FF00100BDE8FC81A0
:1011100000BF00BF95F83500216A91F8351088426C
:1011200005DA05F135020221206A03F0BEFA627A7F
:10113000294604F11400FFF71CFC019800280BDD80
:1011400000BF00BF01AA002105F14C0003F002FD21
:1011500005F14C0003F02EFC304609F09DFB02F037
:1011600083FE286B28B1286B093000B9B6E7286BDD
:10117000CCE709F08DFB0646304609F08DFB00BF39
:101180009D48006818B120469B490968884700BF00
:101190000020BBE72DE9F047044634B940F21A328B
:1011A0009649AFF27C2001F0F9FE204602F0E4FC03
:1011B000032805D040F21B3290497C4801F0EEFE36
:1011C000002600BF09F064FB804602F046FF58B9D4
:1011D0008A49AFF2F82001F0DCFD4FF448728749EC
:1011E000AFF2543001F0DAFE00BF09F051FB814646
:1011F00001F0F0F958B18149AFF2943001F0C9FD26
:101200004FF448727D49AFF2783001F0C7FE48468E
:1012100009F042FB00BF404609F03EFB00BF02F070
:101220001CFF054609F034FB074600BF00BF00BFA6
:101230007348006818B1204671490968884700BFA3
:10124000206AA84209D04FF0FF302863384609F0E1
:1012500023FB4FF0FF30BDE8F087E07F401EE077D2
:10126000E07F08BBA07F216A91F83510884205D045
:1012700004F11E020221206A03F017FA04F114009F
:1012800001F04BF988B96069A0F1140500BF00BFF7
:10129000256295F83500A077E07F401CE07704F1E7
:1012A000140001F04AF9012606E0A08B401CA0833F
:1012B00000202062FF20A077384609F0EDFA012EC9
:1012C00001D102F0D1FD0020C5E770B504460D46FE
:1012D000164634B940F27D324A49AFF2B43001F0DB
:1012E0005DFE204602F048FC032805D040F27E3225
:1012F00044492E4801F052FE4FF0FF3070BD70B5EA
:1013000004460D4616462CB940F293323E493FA0A2
:1013100001F044FE2A460421204602F055FB667285
:10132000204601F002F90020E06170BD10B50446CE
:101330002CB940F2AF323A4934A001F02FFE2046DA
:1013400002F01AFC042805D04FF46C723449354879
:1013500001F024FE204602F0FEFB28B940F2B13233
:101360002F4931A001F01AFE04F11400FFF737FBFA
:10137000204602F056FB002010BD2DE9F041054645
:101380000E4600BF09F084FA074601F023F950B178
:101390003249AFF22C5001F0FCFC40F2CA322F4926
:1013A000AFF214505CE05DE0536F0108347E010839
:1013B00072745F6F626A6563745F69735F73797378
:1013C00074656D6F626A65637428266D75746578DF
:1013D0002D3E706172656E742E706172656E742937
:1013E000203D3D2052545F46414C534500000000D3
:1013F000636F0108E4000020E8000020716F01081D
:10140000EC000020826F0108936F01086576656E1D
:101410007420213D2052545F4E554C4C000000007A
:10142000A16F0108F07D010872745F6F626A6563E5
:10143000745F69735F73797374656D6F626A6563F6
:101440007428266576656E742D3E706172656E74C3
:101450002E706172656E742900000000B16F010882
:1014600001F09CFD384609F017FA00BF2946042018
:1014700002F0F6FA044614B92046BDE8F08166721F
:10148000204601F052F80020E0612046F5E770B5F3
:10149000044634B94FF47A72F449AFF2900001F087
:1014A0007DFD204602F068FB042805D040F2E932B9
:1014B000EE49EF4801F072FD204602F04CFB28B1E6
:1014C00040F2EA32E949EBA001F068FD00BF09F003
:1014D000DFF9054601F07EF858B1E449AFF27860D3
:1014E00001F057FC4FF47B72E049AFF25C6001F011
:1014F00055FD284609F0D0F900BF04F11400FFF7AC
:101500006EFA204602F0FBFA002070BD2DE9F0478C
:1015100004460F4634B940F20B42E649AFF21410CC
:1015200001F03CFD204602F027FB042805D040F2E4
:101530000C42E049CE4801F031FD1FB94FF0FF30B9
:10154000BDE8F0874FF0000809F0A2F98246E06993
:101550003843E06100BFD848006818B12046D6493A
:101560000968884700BF04F1140000F0D6FFC0BB33
:10157000666932E0A6F114054FF0FF3995F8400096
:1015800000F0010040B1E86BE1690840E96B884276
:1015900011D14FF000090EE095F8400000F0020074
:1015A00048B1E86BE169084028B1E86BE16908409F
:1015B000E8634FF000093668B9F1000F0DD195F8D6
:1015C000400000F0040018B1E069E96B8843E06175
:1015D000284602F00FFE4FF0010804F11400864285
:1015E000C8D1504609F058F9B8F1010F01D102F005
:1015F0003BFC0020A4E72DE9FF4F81B005460E46D5
:101600001746DDF8388000BF09F042F9009002F07B
:1016100024FD58B9A949AFF23C7001F0BAFB40F281
:101620006E42A649AFF2987001F0B8FC00BF09F015
:101630002FF9834600F0CEFF58B1A049AFF2D87021
:1016400001F0A7FB40F26E429C49AFF2BC7001F082
:10165000A5FC584609F020F900BF009809F01CF9D4
:1016600000BF35B940F271429449AFF2602001F0F9
:1016700095FC284602F080FA042805D040F2724218
:101680008E497B4801F08AFC26B94FF0FF3005B047
:10169000BDE8F08F4FF0FF3902F0DFFC0446002177
:1016A000216300BF8648006818B12846844909684C
:1016B000884700BF09F0ECF8824607F0010030B11E
:1016C000E8693040B04212D14FF000090FE007F056
:1016D000020028B1E869304048B14FF0000906E047
:1016E00040F291427549AFF6580001F057FCB9F14C
:1016F000000F0DD1B8F1000F03D0E8693040C8F8F1
:10170000000007F0040088B3E869B043E8612DE009
:10171000049818B96FF00100206327E0E66384F8AD
:1017200040706A7A214605F11400FFF722F9049807
:10173000002809DD04AA002104F14C0003F00AFA94
:1017400004F14C0003F036F9504609F0A5F802F018
:101750008BFB206B08B1206B99E709F099F8824662
:10176000B8F1000F02D0E06BC8F80000504609F055
:1017700093F800BF5348006818B1284651490968DA
:10178000884700BF206B82E72DE9F04104460D46F3
:10179000174634B940F2E3424B49AFF2903001F0C2
:1017A000FDFB204602F0E8F9042805D040F2E442AF
:1017B00045492F4801F0F2FB012D10D109F068F8DE
:1017C000064604F11400FFF70AF90020E0613046F4
:1017D00009F062F802F048FB0020BDE8F0814FF00C
:1017E000FF30FAE72DE9F04104460D4616461F4644
:1017F000DDF818802CB940F21152344934A001F0C0
:10180000CDFB2A460521204602F0DEF884F8098047
:10181000204600F08AFEE661278400206084A084D0
:10182000E08404F1280000F075FE0020BDE8F0819E
:1018300010B504462CB940F23452294924A001F0D5
:10184000ADFB204602F098F9052805D040F235524C
:101850002349244801F0A2FB204602F07CF918B984
:1018600040F236521E493FE041E00000C16F0108DE
:10187000F07D010872745F6F626A6563745F6973FB
:101880005F73797374656D6F626A6563742826652A
:1018900076656E742D3E706172656E742E70617225
:1018A000656E7429203D3D2052545F46414C53459E
:1018B00000000000D16F0108EC000020DF6F01087C
:1018C000E4000020E8000020ED6F0108FE6F010831
:1018D0006D6220213D2052545F4E554C4C0000005B
:1018E00009700108787E0108FAA001F057FB04F1A5
:1018F0001400FFF774F804F12800FFF770F8204691
:1019000002F08FF8002010BD2DE9F04105460E468B
:10191000174600BF08F0BCFF804600F05BFE58B1E0
:10192000F849AFF6BC2001F034FA40F25252F549C2
:10193000AFF6A42001F032FB404608F0ADFF00BF37
:101940002946052002F08CF8044614B92046BDE86B
:10195000F0816772204600F0E8FD2684218C880023
:1019600001F060FCE061E06920B9204602F0C7F8B0
:101970000020ECE700206084A084E08404F12800CB
:1019800000F0C8FD2046E2E770B5044600BF08F04D
:101990007FFF054600F01EFE58B1DB49AFF6383038
:1019A00001F0F7F940F27D52D749AFF61C3001F053
:1019B000F5FA284608F070FF00BF34B94FF4B06262
:1019C000D149AFF2F40001F0E9FA204602F0D4F870
:1019D000052805D040F28152CB49CC4801F0DEFA0F
:1019E000204602F0B8F828B140F28252C649C8A099
:1019F00001F0D4FA04F11400FEF7F1FF04F128001D
:101A0000FEF7EDFFE06901F012FD204602F077F8E5
:101A1000002070BD2DE9F74F04460F4634B94FF44E
:101A2000B562CA49AFF2581001F0B8FA204602F088
:101A3000A3F8052805D040F2A952C449B34801F0E3
:101A4000ADFA002602F009FB054600BFC048006859
:101A500018B12046BE490968884700BF08F018FF42
:101A60008046608C218C884208D1029830B940466B
:101A700008F012FF6FF00200BDE8FE8F69E0002061
:101A80002863029828B9404608F006FF6FF002006C
:101A9000F2E700BF08F0FCFE814602F0DEFA58B91A
:101AA000AA49AFF6C83001F074F940F2CC52A74908
:101AB000AFF6244001F072FA00BF08F0E9FE82465A
:101AC00000F088FD58B1A149AFF6644001F061F91A
:101AD00040F2CC529D49AFF6484001F05FFA5046C3
:101AE00008F0DAFE00BF484608F0D6FE00BF627A72
:101AF000294604F12800FEF73CFF029800280EDD7D
:101B0000FEF7FFFA064600BF00BF02AA002105F15A
:101B10004C0003F01FF805F14C0002F04BFF40466B
:101B200008F0BAFE02F0A0F9286B08B1286BA3E711
:101B300008F0AEFE8046029800280ADDFEF7E1FAC2
:101B4000861B0298801B02900298002801DA002070
:101B50000290608C218C884291D0A18CE06940F881
:101B60002170A08C401CA084A08C218C884201DBB9
:101B70000020A084608C401C608404F1140000F0FC
:101B8000CCFC50B904F1140000F0D7FC404608F03A
:101B900083FE02F069F900206EE7404608F07CFE03
:101BA000002069E770B504460D460022294620460C
:101BB000FFF730FF70BD2DE9F74F04460F4634B9EB
:101BC00040F23A626349AFF2F82001F0E7F92046AB
:101BD00001F0D2FF052805D040F23B625D494B4839
:101BE00001F0DCF9002602F038FA054600BF5A4839
:101BF000006818B1204658490968884700BF08F0B6
:101C000047FE8046608C40B9029830B9404608F0E3
:101C100043FE6FF00100BDE8FE8FB0E000202863B6
:101C2000029830B9404608F037FE6FF00100286393
:101C3000F1E700BF08F02CFE814602F00EFA58B919
:101C40004449AFF6685001F0A4F84FF4CC62414922
:101C5000AFF6C45001F0A2F900BF08F019FE8246A9
:101C600000F0B8FC58B13B49AFF6046001F091F8C0
:101C70004FF4CC623749AFF6E85001F08FF9504687
:101C800008F00AFE00BF484608F006FE00BF627A70
:101C9000294604F11400FEF76CFE029800280EDDC0
:101CA000FEF72FFA064600BF00BF02AA002105F189
:101CB0004C0002F04FFF05F14C0002F07BFE404665
:101CC00008F0EAFD02F0D0F8286B08B1286BA2E713
:101CD00044E0000072745F6F626A6563745F6973E9
:101CE0005F73797374656D6F626A65637428266DBE
:101CF000622D3E706172656E742E706172656E74D5
:101D0000290000001670010823700108787E010880
:101D100072745F6F626A6563745F69735F7379730E
:101D200074656D6F626A65637428266D622D3E70FE
:101D30006172656E742E706172656E7429203D3D0E
:101D40002052545F46414C5345000000307001085A
:101D5000EC00002040700108E400002008F098FD2D
:101D60008046029800280ADDFEF7CBF9861B029810
:101D7000801B02900298002801DA00200290608CFB
:101D800000283FF44BAFE18CE06950F82100386047
:101D9000E08C401CE084E08C218C884201DB002038
:101DA000E084608C401E608404F1280000F0B5FBE4
:101DB00098B904F1280000F0C0FB404608F06CFD23
:101DC00000BFFA48006818B12046F84909688847FA
:101DD00000BF02F049F800201DE7404608F05CFD16
:101DE00000BFF248006818B12046F04909688847EA
:101DF00000BF00200FE72DE9F04104460D461746CD
:101E000034B94FF4D862EA49AFF23C5001F0C6F859
:101E1000204601F0B1FE052805D040F2C162E44938
:101E2000E44801F0BBF8012D16D108F031FD06465B
:101E300004F11400FEF7D3FD04F12800FEF7CFFDF6
:101E400000206084A084E084304608F025FD02F084
:101E50000BF80020BDE8F0814FF0FF30FAE72DE9E4
:101E6000F05F04460F4690469946DDE90AAB2CB96F
:101E700040F2FD62D049D1A001F090F83A46062127
:101E8000204601F0A1FD84F809B0204600F04DFB8A
:101E9000C4F81C8009F1030020F003002084208C8A
:101EA000001DBAFBF0F060840020A062E0622063B5
:101EB000002508E0208C001DE16905FB0016206B61
:101EC000306026636D1C608CA842F3DC0020A08487
:101ED000BDE8F09F10B504462CB940F22E72BB4904
:101EE000B6A001F05BF8204601F046FE062805D0BA
:101EF00040F22F72B549B64801F050F8204601F083
:101F00002AFE28B94FF4E662B049B2A001F046F8C3
:101F100004F11400FEF763FD204601F082FD00206D
:101F200010BD70B5044600BF08F0B2FC054600F0D5
:101F300051FB48B1B349B44800F02BFF40F28A721C
:101F4000B049B2A001F02AF8284608F0A5FC00BF6D
:101F50002CB940F28D72AB4998A001F01FF82046D1
:101F600001F00AFE062805D040F28E72A549984875
:101F700001F014F8204601F0EEFD28B140F28F7216
:101F8000A049A3A001F00AF804F11400FEF727FD10
:101F9000E06901F04CFA204601F0B1FD002070BD6F
:101FA0002DE9F05F0746884691469A4600BF08F043
:101FB0006FFC834600F00EFB48B1A449924800F044
:101FC000E8FE4FF4EA62A14990A000F0E7FF58460E
:101FD00008F062FC00BF3946062001F041FD0446CE
:101FE00014B92046BDE8F09F84F809A0204600F00F
:101FF0009CFA08F1030020F003002084A4F822904A
:10200000218C091D628C01FB02F001F00BF9E061EB
:10201000E06920B92046FFF784FF0020E2E70020B6
:10202000A062E0622063002508E0208C001DE169C9
:1020300005FB0016206B306026636D1C608CA84287
:10204000F3DC0020A0842046CCE72DE9F0410446D3
:102050000F4616462CB940F2AF727D4957A000F0EA
:102060009DFF204601F088FD062805D04FF4F6625A
:102070007749574800F092FF2FB940F2B172744986
:1020800074A000F08BFF2EB940F2B272704976A0B6
:1020900000F084FF208CB04203D24FF0FF30BDE847
:1020A000F08100BF7348006818B120467149096883
:1020B000884700BF08F0ECFB8046256B2DB94046F1
:1020C00008F0EAFB6FF00200E9E728682063404669
:1020D00008F0E2FB0020286032463946281D00F057
:1020E000E0FA08F0D5FB8046E06A08B1E06A0560D6
:1020F000E562A06A00B9A562A08C401CA08404F12E
:10210000140000F00AFA50B904F1140000F015FAB6
:10211000404608F0C1FB01F0A7FE0020BFE74046A3
:1021200008F0BAFB0020BAE72DE9F04104460F465B
:1021300016462CB940F609024F4920A000F02EFFA8
:10214000204601F019FD062805D040F60A024A494A
:102150001F4800F023FF2FB940F60B0246493DA06F
:1021600000F01CFF2EB940F60C0243493EA000F0DF
:1021700015FF208CB04203D24FF0FF30BDE8F08154
:1021800000BF3C48006818B120463A4909688847B2
:1021900000BF08F07DFB8046256B2DB9404608F056
:1021A0007BFB6FF00200E9E768E00000E800002038
:1021B0004B700108787E0108597001086D7120216B
:1021C0003D2052545F4E554C4C0000006470010895
:1021D000A87D010872745F6F626A6563745F6973DA
:1021E0005F73797374656D6F626A65637428266DB9
:1021F000712D3E706172656E742E706172656E74C1
:10220000290000007E700108680E00083000000000
:1022100072745F6F626A6563745F69735F73797309
:1022200074656D6F626A65637428266D712D3E70EA
:102230006172656E742E706172656E7429203D3D09
:102240002052545F46414C53450000007170010814
:102250008B70010862756666657220213D205254BC
:102260005F4E554C4C00000073697A6520213D207B
:1022700030000000EC000020967001082868206300
:10228000404608F009FB32463946281D00F009FA9D
:1022900008F0FEFA8046A06A2860A562E06A00B9EC
:1022A000E562A08C401CA08404F1140000F035F914
:1022B00050B904F1140000F040F9404608F0ECFA7F
:1022C00001F0D2FD002059E7404608F0E5FA002071
:1022D00054E72DE9FF4F81B004460F46904634B9CC
:1022E00040F663029B49AFF22C1000F057FE2046E7
:1022F00001F042FC062805D040F664029549964854
:1023000000F04CFE37B940F665029249AFF2BC00CE
:1023100000F044FEB8F1000F06D140F666028D4988
:10232000AFF2BC0000F03AFE4FF0000901F095FE5C
:10233000054600BF8948006818B1204687490968EA
:10234000884700BF08F0A4FA8246A08C48B90498D8
:1023500038B9504608F0A0FA6FF0010005B0BDE8AA
:10236000F08F6BE000BF08F093FA009001F075FE6B
:1023700050B978497A4800F00CFD40F67C02754966
:10238000AFF2781000F00AFE00BF08F081FA834631
:1023900000F020F958B16F497148743800F0F9FC29
:1023A00040F67C026B49AFF29C1000F0F7FD5846F6
:1023B00008F072FA00BF009808F06EFA00BF002023
:1023C0002863049830B9504608F066FA6FF00100AF
:1023D0002863C3E7627A294604F11400FEF7C9FABC
:1023E000049800280EDDFDF78CFE814600BF00BF7B
:1023F00004AA002105F14C0002F0ACFB05F14C00F1
:1024000002F0D8FA504608F047FA01F02DFD286B8B
:1024100008B1286BA2E708F03BFA8246049800282E
:102420000CDDFDF76EFEA0EB09090498A0EB090096
:1024300004900498002801DA00200490A08C002861
:1024400090D0A66A3068A062E06AB04201D1002054
:10245000E062A08C401EA084504608F01DFA208C3B
:10246000404501D2208C00E040460246311D3846EE
:1024700000F017F908F00CFA8246206B30602663F2
:10248000504608F009FA00BF3648006818B12046E7
:1024900034490968884700BF00205FE72DE9F04113
:1024A00004460E46904634B940F6EB022E49AFF290
:1024B000F42000F073FD204601F05EFB062805D0F5
:1024C00040F6EC022849244800F068FD012E1ED198
:1024D00008F0DEF9074604F11400FEF780FA0AE07E
:1024E000A56A2868A062E06AA84201D10020E062E3
:1024F000206B28602563A06A0028F1D1A0843846AB
:1025000008F0CAF901F0B0FC0020BDE8F0814FF0FE
:10251000FF30FAE740600060704701460868884273
:1025200001D1012070470020FCE710B5044604F1FA
:102530001400FFF7EFFF002010BD70B504462068BF
:10254000A0F1140500BF00BF284601F053FE002093
:1025500070BD0000A3700108A87D0108E400002000
:10256000DC0E0008E8000020AE7001081F4908607A
:1025700070471F490860704710B500BF00BF08F0E2
:1025800087F904461B480078401C1A49087000BFB0
:102590001648006810B115480068804700BF204603
:1025A00008F07AF910BD10B500BF00BF08F070F94F
:1025B000044610480078401E0E49087000BF0C48C1
:1025C000006810B10A480068804700BF204608F044
:1025D00063F910BD70B508F05BF90546054804784D
:1025E000284608F059F9204670BD0000040000207C
:1025F000080000200C00002010B5FFF7EBFF10B121
:10260000FA48006810BD01F028FD044614B9F748E7
:102610000068F7E7206BF5E770B50446FFF7DAFFCF
:1026200010B1F248046070BD01F017FD054615B900
:10263000EE480460F7E72C6300BFF4E710B5FFF73E
:10264000C9FF08B1E94810BD01F007FD044614B107
:1026500004F13000F7E7E548F5E7F0B50C4605462C
:10266000E6B2042A15D300F0030797B9014646EAFB
:10267000062343EA034304E008C108C108C108C1B6
:10268000103A102AF8D201E008C1121F042AFBD226
:102690000D4601E005F8016B171EA2F10102F9D108
:1026A000F0BD2DE9F0410F46164604463D4633463F
:1026B000102B28D305F0030C04F003084CEA080C97
:1026C000BCF1000F1FD121462A4610E052F804CB7E
:1026D00041F804CB52F804CB41F804CB52F804CBB8
:1026E00041F804CB52F804CB41F804CB103B102B3B
:1026F000ECD204E052F804CB41F804CB1B1F042BAE
:10270000F8D20C46154603E015F801CB04F801CBCE
:10271000B3F1000CA3F10103F6D1BDE8F08170B56F
:102720000C46014623468B4210D29D188D420DD98E
:102730001144134405E05D1E2B462E784D1E29469C
:102740002E70151EA2F10102F5D108E003E013F886
:10275000015B01F8015B151EA2F10102F7D170BD0A
:10276000F0B5034600201C460D4608E026782F7879
:10277000F61B301E00D004E0641C6D1C521E002AA3
:10278000F4D800BFF0BD01460A4600E0521C1078A4
:102790000028FBD1501A7047F0B506460F46384660
:1027A000FFF7F1FF05460DB93046F0BD3046FFF7A3
:1027B000EAFF044609E0641E2A4639463046FFF720
:1027C000CFFF08B93046F0E7761CAC42F3DA0020C0
:1027D000EBE730B503460C4600BF13F8011B14F8B5
:1027E000012B412902DB5A2900DC2031412A02DB7E
:1027F0005A2A00DC2032914201D10029EDD1881AF9
:1028000030BD70B50346A2B118460C4600BF14F89F
:10281000016B00F8016B3EB902E0002500F8015B96
:10282000551E2A1EF9D102E0551E2A1EEFD100BF07
:1028300000BF184670BD30B5034600200BE011F80C
:10284000015B1C78641B64B2201E02D113F8015B8B
:1028500005B902E0521E002AF1D100BF30BD024688
:1028600001E0521C491C107818B110780B7898427E
:10287000F7D010780B78C01A704702460B46114605
:1028800000E0491C087810B1881A9842F9D3881AD8
:10289000704770B504462046FFF775FF451C284673
:1028A00000F0C0FC06460EB9002070BD2A46214645
:1028B0003046FFF7F6FE3046F7E770472DE9F04F58
:1028C00085B00D469C46DDE90F740E9B04F0400870
:1028D000B8F1000F02D0DFF8188101E0DFF81481B1
:1028E000CDF8008004F01008B8F1000F01D024F0FA
:1028F000010404F00108B8F1000F02D04FF03008D5
:1029000001E04FF02008C246002604F00208B8F1AA
:10291000000F11D0002A02DA2D2652420CE004F0FA
:102920000408B8F1000F01D02B2605E004F00808D8
:10293000B8F1000F00D02026002142B94FF0300B33
:102940008846491C0DF1040909F808B01DE01AE099
:10295000E146B9F10A0F08D14FF00A0BB2FBFBFEBA
:102960000BFB1E28B2FBFBF202E002F00F0812097B
:1029700000BFDDF8009019F808B08846491C0DF139
:10298000040909F808B0002AE2D1B94200DD0F4677
:10299000DB1B04F01108B8F1000F10D116B1002BA9
:1029A00000DD5B1E06E0A84203D84FF0200880F847
:1029B0000080401CB3F10008A3F10103F3DC26B151
:1029C000A84201D806705B1E401C04F01008B8F144
:1029D000000F0AD104E0A84201D880F800A0401CF2
:1029E000B3F10008A3F10103F5DC0CE010000020B6
:1029F000CD710108BC710108A84203D84FF030081E
:102A000080F80080401CB8467F1E8845F4DC08E052
:102A1000A84205D80DF1040818F8018080F800805C
:102A2000401CB1F10008A1F10101F1DC06E0A8426F
:102A300003D84FF0200880F80080401CB3F1000854
:102A4000A3F10103F3DC05B0BDE8F08F01460020DF
:102A500009E00B685A1C0A601A7800EB800302EB4D
:102A60004302A2F130000A681278303A0A2AF0D301
:102A700070472DE9FF4F89B0804644460A9840448C
:102A8000461E464504D24FF0FF36A6EB08000A90DA
:102A90006FE10B980078252806D0B44202D80B9835
:102AA00000782070641C61E1002526E00B98401C32
:102AB0000B900B9800782D2802D145F010051CE0F2
:102AC0000B9800782B2802D145F0040515E00B98EF
:102AD0000078202802D145F008050EE00B98007818
:102AE000232802D145F0200507E00B980078302814
:102AF00002D145F0010500E000E0D7E700BF4FF04C
:102B0000FF370B98007830380A2804D20BA8FFF75B
:102B10009DFF07460EE00B9800782A280AD10B98F3
:102B2000401C0B900C9880C80C90002F02DA7F425A
:102B300045F010054FF0FF390B9800782E281CD176
:102B40000B98401C0B900B98007830380A2804D260
:102B50000BA8FFF77BFF81460AE00B9800782A2834
:102B600006D10B98401C0B900C9850F8049B0C90CD
:102B7000B9F1000F01DA4FF00009002004900B9822
:102B80000078682803D00B9800786C2805D10B9842
:102B9000007804900B98401C0B900A2005900B982D
:102BA00000786F2875D00CDC632813D004DC25284E
:102BB00070D058286FD18DE064286DD06928F9D184
:102BC0008FE070286AD0732825D0752878D07828AF
:102BD000F0D182E005F0100040B904E0B44201D821
:102BE00020202070641C781E071EF7DC0C9810F85B
:102BF000041B0C90C8B20790B44201D8079820700B
:102C0000641C04E0B44201D820202070641C781EAB
:102C1000071EF7DCAAE00C98006806900C98001DCF
:102C20000C90069808B9EBA006900698FFF7ABFD4C
:102C30008346B9F1000F02DDCB4500DDCB4605F040
:102C4000100048B904E0B44201D820202070641C70
:102C500038467F1E5845F6DC002008900BE0B44251
:102C600002D8069800782070641C0698401C0690D4
:102C70000898401C089008985845F0DB04E0B442DE
:102C800001D820202070641C38467F1E5845F6DC91
:102C90006CE01CE015E028E022E0FFE7781C10B9AA
:102CA000082745F00105CDE9007902950C9804C884
:102CB000102331460C902046FFF700FE044655E0F5
:102CC00012E0B44201D825202070641C4EE0082098
:102CD00005901DE045F0400500BF1020059017E06D
:102CE00000BF45F0020500BF12E0B44201D8252024
:102CF0002070641C0B98007830B1B44202D80B9855
:102D000000782070641C02E00B98401E0B902DE0B0
:102D100000BF04986C2807D10C9850F804AB0C90B5
:102D200005F00200B8B116E0049868280BD10C98A1
:102D300030F8041B1FFA81FA0C9005F0020050B124
:102D40000FFA8AFA07E00C9850F804AB0C9005F0E3
:102D5000020000B100BFCDE900790295524631462C
:102D60002046059BFFF7AAFD044600BF0B98401CB8
:102D70000B900B98007800287FF48BAEB44201D8FA
:102D8000207001E000203070A4EB08000DB0BDE819
:102D9000F08F0FB438B505A800907F218F48009BB5
:102DA000049AFFF766FE04467F2C00D97F248C48E6
:102DB000006818B98948FFF780FD15E08848006869
:102DC000058B87480068008B40F040008449096803
:102DD00008832346814A002181480068FDF7AAFB49
:102DE0007F480068058300BF0020009038BC5DF874
:102DF00014FB08B57BA0FFF7CCFF7DA0FFF7C9FF50
:102E000084A000231A460421009085A0FFF7C1FF8B
:102E10008BA0FFF7BEFF08BD0FB4F8B504460D4602
:102E200009A8009029462046009B089AFFF721FE3A
:102E30000646002000903046F8BC5DF814FB37B51C
:102E400005460C4622464FF0FF312846029BFFF70D
:102E500010FE3EBD0FB438B5044606A800902046CB
:102E6000009A0599FFF7EBFF0546002000902846E1
:102E700038BC5DF814FB5A480068704770B50546C9
:102E8000574806682846FDF7DDF9044664B1544802
:102E9000006818B152480068FDF7EDFA432120465A
:102EA000FDF794FA4E480460304670BD70B5044694
:102EB00004B970BD4A48006818B92046FFF7FDFC08
:102EC00019E047480068058B45480068008B40F0D2
:102ED00040004349096808832046FFF754FC064632
:102EE0003346224600213E480068FDF723FB3C485C
:102EF0000068058300BF00BFDBE72DE9F04780468F
:102F00000C460426761EA01920EA060408EB0600EB
:102F1000B04300EB0409484600F084F9054665B16A
:102F2000601E284008B92F1904E0601E2844611E65
:102F300020EA010747F8045C3D462846BDE8F087D3
:102F400070B5044654F8045C284600F070FA70BD71
:102F5000014609B900207047C8B220B1C8B2434A3F
:102F6000105C401CF7E701F47F4028B13F48C1F3F3
:102F70000722805C0930EEE701F47F0028B13B486E
:102F8000C1F30742805C1130E5E7384800EB11607F
:102F900000781930DFE7364908607047F8B5044615
:102FA0000D461646002000903148006858B9334657
:102FB0002A4621462FA0FFF7ECFE00BF9DF8000037
:102FC0000028FBD005E0324629462046284B1B68E6
:102FD0009847F8BD284E554C4C2900001C0600208F
:102FE000140000200A205C207C202F0A0000000032
:102FF0002D205254202D20202020205468726561FD
:1030000064204F7065726174696E672053797374C0
:10301000656D0A004A616E2031342032303139004A
:10302000202F207C205C202020202025642E256459
:103030002E2564206275696C642025730A000000E7
:103040002032303036202D203230313820436F701E
:103050007972696768742062792072742D7468725D
:10306000656164207465616D0A000000BC70010830
:103070001800002028257329206173736572746914
:103080006F6E206661696C65642061742066756E80
:103090006374696F6E3A25732C206C696E65206EBF
:1030A000756D6265723A2564200A0000F049086077
:1030B0007047F0490860704770B50446EE480068F4
:1030C000844204D2A122ED49EDA0FFF767FFF44846
:1030D0000068844204D3A222E849F2A0FFF75EFF11
:1030E000608820B1A322E549F9A0FFF757FFE24924
:1030F000606809684518AC4215D0688898B9E848F6
:10310000006885420FD0F6480068A84201D1F44813
:10311000046068686060D8480068201AD64A696808
:10312000126811448860D449A06809684618A6420C
:1031300011D0708878B9EA480068A04201D1E84807
:10314000066060687060CC480068301ACA4A6168DE
:1031500012681144886070BD2DE9F04705460E469F
:10316000E81C20F0030726F0030800BF07F090FBDF
:103170008146FFF72FFA40B1DA49DBA0FFF709FEDD
:10318000D222D849E2A0FFF709FF484607F084FBA6
:1031900000BFB8F1180F09D9A8F11800B84205D33B
:1031A000A8EB07001838DB49086006E032462946DC
:1031B000D9A0FFF7EEFDBDE8F087AF48076000BF7C
:1031C00000BF04684FF4F5502080D24800680C30EE
:1031D00060600020A0606080A749606809680844BA
:1031E000AF4908604FF4F550096808800120AC49E8
:1031F00009684880C74800680C30A94909684860D8
:10320000C44800680C30A649096888600023012280
:10321000D0A1D248FDF7FCFB97480068B049086090
:1032200000BFC8E72DE9F047054615B90020BDE805
:10323000F08700BF07F02CFB8146FFF7CBF948B1C0
:10324000C749A9A0FFF7A5FD4FF48C72C449B0A0EF
:10325000FFF7A4FE484607F01FFB00BFE81C20F064
:103260000300A84201D000BF01E000BF00BFE81C7E
:1032700020F00305A7480068854203D900BF00BFBE
:103280000020D4E70C2D00D20C254FF0FF31B348BD
:10329000FDF761FC9248006877490968461ABBE06F
:1032A000754800688419608800287BD106F10C00FD
:1032B0006168081AA84275D306F10C006168091A02
:1032C00005F11800814230D306F10C0000EB05082F
:1032D0006948006800EB08074FF4F550388000207B
:1032E000788060687860BE60C4F8048001206080E7
:1032F0008848796800680C30814205D05E4978685A
:1033000009680844C0F808809648016805F10C0077
:10331000084494490860944800680968884219D2B2
:10332000904800689049086014E00120608052498C
:1033300060680968611A401A8A490968084489491D
:103340000860894800680968884203D28548006897
:10335000854908604FF4F550208061480068844238
:1033600024D107E05E480068406843490968084482
:103370005B4908605A480068408828B1584800688E
:10338000474909688842EDD15548006844490968B1
:1033900088420BD052480068408838B14FF4C1725F
:1033A0006F4900E034E071A0FFF7F8FD6B48FDF7CE
:1033B00069FC04F10C00284439490968884205D9A0
:1033C0004FF4C37266497348FFF7E8FD04F0030049
:1033D00028B140F2871262496F48FFF7DFFD04F021
:1033E000030028B14FF4C4725D496CA0FFF7D6FD0D
:1033F00000BF00BF00BF1E48006828B1294604F185
:103400000C001B4A1268904700BF04F10C000EE745
:1034100019480068304446683E480068401BB04286
:103420003FF63EAF4D48FDF72DFC0020FFE670B59E
:10343000054605B970BD00BF07F02AFA0646FFF73A
:10344000C9F848B1614928A0FFF7A3FC40F229223E
:103450005E492FA0FFF7A2FD304607F01DFA00BF1E
:1034600005F0030018B140F22B225849B0E0B2E059
:103470001C0000202000002024000020DE71010834
:103480002872745F75696E74385F74202A296D65BF
:103490006D203E3D20686561705F707472000000B1
:1034A000280000202872745F75696E74385F74207C
:1034B0002A296D656D203C202872745F75696E74D1
:1034C000385F74202A29686561705F656E6400004A
:1034D0006D656D2D3E75736564203D3D20300000A7
:1034E0002C000020E971010846756E6374696F6EE7
:1034F0005B25735D207368616C6C206E6F74206255
:1035000065207573656420696E204953520A000076
:1035100030000000300000206D656D20696E697418
:103520002C206572726F7220626567696E2061641B
:10353000647265737320307825782C20616E642066
:10354000656E6420616464726573732030782578D9
:103550000A00000068656170000000009C06002001
:10356000FD710108340000203800002028286C6616
:10357000726565203D3D20686561705F656E6429F8
:10358000207C7C2028216C667265652D3E757365F4
:1035900064292900647F0108BC7E0108282828725C
:1035A000745F75626173655F74296D656D2920268E
:1035B000202852545F414C49474E5F53495A452099
:1035C0002D20312929203D3D2030000012720108B4
:1035D0009EA0FFF7E3FCA9480068854203D3A848F2
:1035E0000068854205D34FF40B72A649A648FFF741
:1035F000D5FC00BFA548006818B12846A349096852
:10360000884700BF9D480068854203D39C480068F6
:10361000854202D300BF00BF0CE7A5F10C0400BF38
:1036200000BF4FF0FF319A48FDF795FA608818B156
:103630002088B0F5F55F08D096A0FFF7AAFB238895
:10364000628821469AA0FFF7A4FB608828B940F25F
:103650004B228C49A2A0FFF7A1FC2088B0F5F55FB2
:1036600005D04FF413728749A0A0FFF797FC002004
:1036700060804FF4F5502080A3480068844201D256
:10368000A14804607D4960680968611A401A9F4931
:103690000968081A9D4908602046FFF70DFD7C481F
:1036A000FDF7F0FA00BFC5E62DE9F84F06460C46D7
:1036B00000BF07F0EDF80090FEF78CFF58B1944979
:1036C000AFF2DC10FFF765FB4FF4D6729049AFF212
:1036D000C010FFF763FC009807F0DEF800BFE01CA5
:1036E00020F003048B480068844204D900BF00BF67
:1036F0000020BDE8F88F24B93046FFF798FE00207F
:10370000F7E71EB92046FFF78DFDF2E74FF0FF31D6
:103710005F48FDF720FA59480068864203D35848AD
:103720000068864204D35A48FDF7ACFA3046E0E719
:10373000A6F10C0851480068A8EB0009D8F804006D
:10374000A0EB0900A0F10C07A74204D15048FDF7F7
:1037500099FA3046CDE704F11800B8422DD2381B53
:103760006A490968081A6949086009F10C0000EB08
:10377000040A4248006800EB0A054FF4F55028801F
:1037800000206880D8F804006860C5F80890C8F880
:1037900004A06048696800680C30814205D0374950
:1037A000686809680844C0F808A02846FFF784FC48
:1037B0003748FDF767FA30469BE73548FDF762FA70
:1037C0002046FFF72FFD8346BBF1000F0CD0A74228
:1037D00001D2384600E02046024631465846FEF700
:1037E00060FF3046FFF723FE584682E770B5044677
:1037F0000D4604FB05F0FFF715FD06462EB104FB50
:1038000005F200213046FEF728FF304670BD10B1AA
:10381000404B1B68036011B13C4B1B680B6012B13D
:103820003D4B1B681360704710B53A4801683BA0D8
:10383000FFF7AFFA354801683DA0FFF7AAFA36480E
:10384000016840A0FFF7A5FA10BD000028282872E3
:10385000745F75626173655F7429726D656D29208F
:1038600026202852545F414C49474E5F53495A45E0
:10387000202D20312929203D3D203000240000202A
:103880002800002012720108087F01082000002093
:103890009C060020746F206672656520612062615D
:1038A00064206461746120626C6F636B3A0A00008B
:1038B0006D656D3A203078253038782C2075736529
:1038C0006420666C61673A2025642C206D6167690D
:1038D0006320636F64653A203078253034780A00BD
:1038E0006D656D2D3E757365640000006D656D2D11
:1038F0003E6D61676963203D3D20484541505F4D05
:1039000041474943000000002C0000203400002003
:10391000077201083000002038000020746F7461C5
:103920006C206D656D6F72793A2025640A00000085
:1039300075736564206D656D6F7279203A2025641A
:103940000A0000006D6178696D756D20616C6C6FA7
:103950006361746564206D656D6F72793A202564CA
:103960000A0000000268516002680A600160486055
:103970007047D0E900215160D0E900121160406029
:1039800000607047A64908607047A6490860704704
:10399000A54908607047A54908607047A4490860B8
:1039A00070477047024600210AE0A24800EB011070
:1039B0000078904203D19F4800EB01107047491CEA
:1039C0000A29F2DB0020F9E72DE9F04104460D4613
:1039D00016462846FFF7E6FF074627B9FA2296491A
:1039E00096A0FFF7DBFA45F08000207208223146EE
:1039F0002046FEF706FF00BF8948006818B1204640
:103A000087490968884700BF06F042FF804604F1F5
:103A10000C01381DFFF7A6FF404606F03DFFBDE84C
:103A2000F08170B504462CB940F2251289498AA06C
:103A3000FFF7B4FA00BF7B48006818B12046794907
:103A40000968884700BF0020207206F021FF054664
:103A500004F10C00FFF78DFF284606F01DFF70BD36
:103A60002DE9F04706460F4600BF06F011FF8146DC
:103A7000FEF7B0FD48B17D497DA0FFF78AF94FF40C
:103A8000A4727A4984A0FFF789FA484606F004FF39
:103A900000BF3046FFF786FF05462DB94FF4A672EA
:103AA000724966A0FFF77AFAE868FFF7BBFB0446A5
:103AB00014B90020BDE8F08700212046EA68FEF72F
:103AC000CCFD267200206072082239462046FEF79F
:103AD00098FE00BF5248006818B120465049096856
:103AE000884700BF06F0D4FE804604F10C01281D73
:103AF000FFF738FF404606F0CFFE2046DAE770B504
:103B000004462CB94FF4C372644953A0FFF746FA38
:103B1000207A00F0800028B140F287125F4960A04F
:103B2000FFF73CFA00BF3F48006818B120463D4906
:103B30000968884700BF0020207206F0A9FE0546EC
:103B400004F10C00FFF715FF284606F0A5FE2046FD
:103B5000FFF76DFC70BD10B504462CB94FF4D4725C
:103B60005A493DA0FFF71AFA207A00F0800008B108
:103B7000012010BD0020FCE710B504462CB940F22E
:103B8000BB12534934A0FFF709FA207A20F08000D5
:103B900010BD2DE9F04705460E464FF000080027FE
:103BA00000240DB10C2E02DD0020BDE8F08700BF1F
:103BB00006F06EFE8146FEF70DFD48B145492CA08A
:103BC000FFF7E7F840F2D712424933A0FFF7E6F9D2
:103BD000484606F061FE00BF00F0ABF954B930462C
:103BE000FFF7E0FE04462CB94FF4F072394913A0F8
:103BF000FFF7D4F967680CE0A7F10C080822294602
:103C00004046FEF718FE18B900F0A1F94046CCE78F
:103C10003F68201D8742EFD100F099F90020C4E7EA
:103C2000DC000020E0000020E4000020E80000208C
:103C3000EC0000203C0000201A720108696E666FDB
:103C4000726D6174696F6E20213D2052545F4E5534
:103C50004C4C0000297201086F626A656374202170
:103C60003D2052545F4E554C4C0000003A72010802
:103C700046756E6374696F6E5B25735D2073686152
:103C80006C6C206E6F7420626520757365642069AA
:103C90006E204953520A0000300000004D720108A6
:103CA00021286F626A6563742D3E747970652026E1
:103CB0002052545F4F626A6563745F436C61737333
:103CC0005F53746174696329000000005E7201082B
:103CD000787201088B720108AE490860704770B5B0
:103CE000044624B95322AC49ACA0FFF757F9A06AA7
:103CF0000078232809D1A16AE069884205D9D4E96E
:103D00000A010844E16988420CD22146A8A0FFF7C5
:103D100040F809F03BFD06F0BBFD054600BF002D55
:103D2000FDD108E0A06A2030E169814203D8214634
:103D3000A6A0FFF72EF870BD70B50446B148006824
:103D4000FFF706F9451EB04850F83500A0F11406FB
:103D50002560304670BD10B50020AC49088000BF1A
:103D600000BF002405E0A84901EBC40000F00EF9F3
:103D7000641C202CF7DB0020A2490860A44800F056
:103D800005F910BD70B504462CB94FF43A72A1493B
:103D900082A0FFF703F906F07BFD054600BF00BFD8
:103DA00004F11400D0E900215160D0E90012116043
:103DB0004060006000BF94F83510934A02EBC100E8
:103DC0000168814201D1012100E0002129B18D4823
:103DD000A16B006888438B490860284606F05CFDAB
:103DE00070BD38B56846FFF7A7FF04468A480460EF
:103DF0002046FFF7C7FF04F11C0006F07EFD38BD2A
:103E000070B504462CB94FF42272844963A0FFF7C1
:103E1000C5F806F03DFD054694F8340020F00F008B
:103E200040F0010084F834007B480068844200D1EF
:103E300016E094F83520744B03EBC20004F1140132
:103E40004268116042684A604160086000BF00BF7C
:103E500000BF6C49A06B096808436A49086000BF4D
:103E6000284606F019FD70BDF8B506F011FD0646AE
:103E700066480088002857D162480068002852D060
:103E800000276846FFF758FF04466348006890F82B
:103E9000340000F00F0001280AD15F48006890F854
:103EA00035000099884202D25B48046800E001278F
:103EB00059480068844231D05949009808705648E2
:103EC0000568046000BF3348006820B121462846D9
:103ED000304A1268904700BF17B12846FFF790FF9D
:103EE0002046FFF74FFF00BF00BF2046FFF7F7FE59
:103EF0004C48007848B904F11C0105F11C0006F09B
:103F0000CEFC304606F0C8FC12E000BF00BF04F152
:103F10001C0105F11C0006F0C2FC03E03E480068ED
:103F2000FFF730FF00BF00BF304606F0B5FC00BF12
:103F3000F8BD10B506F0ACFC044634480088401CBF
:103F400000B232490880204606F0A6FC10BD10B52C
:103F500006F09EFC04462D480088401E00B22B4906
:103F600008800846B0F90000002807DC002008801F
:103F7000204606F091FCFFF777FF02E0204606F0AE
:103F80008BFC10BD2148008880B270474060006003
:103F900070470000080100209A7201087468726579
:103FA000616420213D2052545F4E554C4C0000006E
:103FB0007468726561643A257320737461636B2061
:103FC0006F766572666C6F770A0000007761726EBB
:103FD000696E673A20257320737461636B2069737F
:103FE00020636C6F736520746F20656E64206F664C
:103FF00020737461636B20616464726573732E0A4D
:1040000000000000F0000020BC060020F4000020AA
:1040100000010020CE720108F8000020B4720108EF
:10402000FC0000200C0000200268516002680A6059
:10403000016048607047D0E900215160D0E900126A
:104040001160406000607047F74908607047F749A9
:1040500008607047F64908607047F6480068704786
:1040600070B5FFF7FAFF044606F012FC054620463D
:10407000FFF788FE042084F8340004F14C0000F0BF
:1040800029FC2046FFF767FD012805D1A06F18B96C
:104090002046FFF7C6FC04E004F11401E648FFF7F0
:1040A000C3FF284606F0F8FBFFF7DEFE70BD70B5D3
:1040B00005462C462CB940F2EF22E049E0A0FEF77D
:1040C0006DFF94F8340000F00F00022805D04FF483
:1040D0003C72DA49DFA0FEF761FF2046FFF74CFD96
:1040E000012805D040F2F122D449E948FEF756FFF5
:1040F0006FF00100206304F11400FFF79CFF2046DD
:10410000FFF77EFEFFF7B0FE70BD2DE9FC5F0446B1
:104110008B4616461F46DDE90C9ADDE90E5804F180
:1041200014004060006000BF26626762C4F82890F7
:10413000C4F82CA02321D4E90A02FEF78EFAD4E9B0
:104140000A3C63441A1FAFF2E703D4E9080106F002
:10415000AFF8E061202D04DB9522CE49CEA0FEF71A
:104160001DFF3034A57165710020A060C4F8148073
:10417000C4F8188020602071A064E064303C009096
:104180002346AFF2D5022146019004F14C0000F025
:1041900084FB00BFA648006818B12046A4490968FE
:1041A000884700BF0020BDE8FC9F2DE9FF5F044663
:1041B0000D46174698460EAE96E8400E24B9EF22FB
:1041C000BE499FA0FEF7EAFE26B9F022BB49BCA07B
:1041D000FEF7E4FE2A4601212046FFF7F5FB4346A1
:1041E0003A46294620468DE8400EFFF78EFF04B080
:1041F000BDE8F09F70B504462CB940F2C222B64922
:104200008FA0FEF7CBFE2046FFF7B6FC012805D0B5
:1042100040F2C322B0499E48FEF7C0FE00BF00BF77
:1042200094F8340000F00F00022804D000BF00BF53
:104230004FF0FF3070BD06F02BFB054604F1140073
:10424000FFF7F9FE04F14C0000F051FC284606F09F
:1042500023FB2046FFF7D4FD00BF7448006818B167
:10426000204672490968884700BF0020E2E710B580
:1042700004462CB940F22112984971A0FEF78EFE37
:1042800094F8340000F00F0028B14FF49172934974
:1042900093A0FEF783FE2046FFF76EFC012805D0B1
:1042A00040F223128D497A48FEF778FE94F83600E2
:1042B00084F8350094F8351001208840A06300BFD1
:1042C00000BF022084F834002046FFF793FFFFF779
:1042D000C4FE08B1FFF7C8FD002010BD70B504464C
:1042E0002CB94FF4A7728C4955A0FEF757FE204613
:1042F000FFF742FC012805D040F24F12864964487E
:10430000FEF74CFE2046FFF726FC28B94FF4A872B2
:10431000814982A0FEF742FE94F8340000F00F00BD
:1043200010B12046FFF72EFD04F14C0000F0D2FA48
:10433000042084F834002046FFF773FBA06F50B1CF
:1043400006F0A6FA054604F114013B48FFF76CFE9F
:10435000284606F0A1FA002070BD2DE9FF5F064651
:104360000F4690461D46DDE90EAB31460120FFF7B2
:1043700077FB8146B9F1000F03D1002004B0BDE8FE
:10438000F09F2846FEF74EFF044624B94846FFF743
:10439000B6FB0020F2E743463A46314648468DE8F0
:1043A000300CFFF7B2FE4846E8E770B504462CB97A
:1043B0004FF4D972654922A0FEF7F0FD2046FFF7C1
:1043C000DBFB012805D040F2B31260493048FEF70C
:1043D000E5FD2046FFF7BFFB28B14FF4DA725B49D9
:1043E0005BA0FEF7DBFD94F8340000F00F0010B185
:1043F0002046FFF7C7FC04F14C0000F06BFA0420E4
:1044000084F8340006F044FA054604F114010A4821
:10441000FFF70AFE284606F03FFA002070BD10B5EF
:10442000FFF722FD002010BD0C010020100100202C
:1044300014010020F8000020000100208073010812
:1044400074687265616420213D2052545F4E554C62
:104450004C000000287468726561642D3E737461BD
:104460007420262052545F5448524541445F5354AF
:1044700041545F4D41534B29203D3D2052545F54E0
:1044800048524541445F53555350454E4400000047
:10449000A87F0108E87201087072696F7269747907
:1044A000203C2052545F5448524541445F50524989
:1044B0004F524954595F4D4158000000F8720108AD
:1044C000737461636B5F737461727420213D205259
:1044D000545F4E554C4C00006F7301080773010880
:1044E000287468726561642D3E737461742026209F
:1044F00052545F5448524541445F535441545F4DB8
:1045000041534B29203D3D2052545F544852454170
:10451000445F494E495400001973010872745F6F7B
:10452000626A6563745F69735F73797374656D6FD5
:10453000626A656374282872745F6F626A65637467
:104540005F74297468726561642900002A73010828
:1045500072745F6F626A6563745F69735F737973A6
:1045600074656D6F626A656374282872745F6F6228
:104570006A6563745F742974687265616429203D9B
:104580003D2052545F46414C5345000070B50446EF
:1045900034B940F295228449AFF25C10FEF7FEFC7C
:1045A0002046FFF7E9FA012805D040F296227E491D
:1045B0007E48FEF7F3FC00BF00BF94F8340000F023
:1045C0000F00012804D000BF00BF4FF0FF3070BDC6
:1045D000FFF743FDA04205D040F2A222724974A029
:1045E000FEF7DCFC06F054F9054694F8340020F0A0
:1045F0000F0040F0020084F834002046FFF7C2FBB1
:1046000004F14C0000F073FA284606F045F900BFAB
:104610006E48006818B120466C490968884700BF99
:104620000020D4E731B5FFF718FD044634B940F255
:10463000ED126749AFF2F810FEF7B0FC2046FFF725
:104640009BFA012805D04FF4F77261495748FEF7ED
:10465000A5FC06F01DF905462046FFF797FF6A46C0
:10466000002104F14C0000F075FA04F14C0000F058
:10467000A1F9284606F010F9FFF7F6FB206B801C25
:1046800008B900202063002038BD10B5044620463C
:10469000FFF7C8FF10BD70B504462046FBF754FD78
:1046A00005462846FFF7BEFF70BD2DE9F0410446E0
:1046B0000E46154634B940F236224649AFF2802004
:1046C000FEF76CFC2046FFF757FA012805D040F2B0
:1046D000372240493548FEF761FC3EB3012E2AD00F
:1046E000022E2CD106F0D4F8074694F8340000F0DE
:1046F0000F0001280ED12046FFF744FB287884F8EC
:10470000350094F8351001208840A0632046FFF75B
:1047100077FB07E0287884F8350094F835100120FD
:104720008840A063384606F0B7F809E02046FFF756
:104730009EFDBDE8F0812046FFF737FEF9E700BF98
:1047400000BF0020F5E72DE9F0410646FFF785FCA4
:1047500008B1FFF7EEFB0120FFF724F904462CB95E
:1047600040F216321C491DA0FEF718FC656810E0E7
:10477000A5F10C07082231463846FEF75CF838B937
:10478000FFF76BFC08B1FFF7E2FB3846BDE8F081AC
:104790002D68201D8542EBD1FFF75FFC08B1FFF7C4
:1047A000D6FB0020F2E700005D730108A87F010836
:1047B000746872656164203D3D2072745F74687234
:1047C0006561645F73656C66282900000C01002038
:1047D0003B7301084B73010892730108696E666FA1
:1047E000726D6174696F6E20213D2052545F4E5589
:1047F0004C4C00000268516002680A600160486029
:104800007047FE4908607047FD49086070472DE910
:10481000F04704460E4617469846DDF8209084F887
:104820000990607A20F001006072E6612762002042
:10483000A062C4F82480002506E004F1140101EB15
:10484000C50000F0A5FA6D1C012DF6DBBDE8F08770
:1048500070B50446204600F09EFA10B14FF0FF30CC
:1048600070BD2068A0F11405A86AF9E710B50246EA
:10487000002001460EE002F1140303EBC100D0E971
:1048800000436360D0E9003423604060006000BFF3
:10489000481C01460129EEDB10BD2DE9F843044612
:1048A0000D4616461F46DDE9088924B9BA22D549C6
:1048B000D5A0FEF773FB2A460A212046FFF784F8AD
:1048C00043463A4631462046CDF80090FFF79FFF19
:1048D000BDE8F88370B5044624B9CF22CF49CAA0F9
:1048E000FEF75CFB2046FFF747F90A2804D0D022E8
:1048F000CA49CBA0FEF752FB2046FFF72CF920B99E
:10490000D122C649D5A0FEF749FB05F0C1FF0546F7
:104910002046FFF7ABFF284605F0BEFF2046FFF715
:1049200080F8002070BD2DE9F84304460E46174676
:104930009846DDF8209021460A20FFF791F80546B9
:1049400015B90020BDE8F88343463A46314628466B
:10495000CDF80090FFF75BFF2846F3E770B50446FB
:104960002CB94FF48772C849A7A0FEF717FB204661
:10497000FFF702F90A2805D040F20F12C249A8A099
:10498000FEF70CFB2046FFF7E6F828B14FF48872DB
:10499000BD49BEA0FEF702FB05F07AFF05462046A2
:1049A000FFF764FF284605F077FF2046FFF7A7F8DA
:1049B000002070BD2DE9F84305462DB94FF49972DA
:1049C000C04991A0FEF7EAFA2846FFF7D5F80A2871
:1049D00005D040F23312BB4991A0FEF7DFFA05F093
:1049E00057FF80462846FFF741FF687A20F0010014
:1049F0006872404605F050FF00BFB348006818B128
:104A00002846B1490968884700BF6FF00041686ACD
:104A1000884205D340F24312AA49ACA0FEF7BEFA81
:104A2000FBF76FFB696A0844A86205F031FF804616
:104A3000AF4E009600242AE019E05DF824201168AA
:104A4000142202EBC402881A826AAB6AD21A00D11D
:104A500008E0826AAB6AD21A6FF000439A4200D231
:104A60000CE000BF5DF8240000684DF824005DF8FC
:104A7000240006EBC40149688842DED100BF2CB196
:104A80005DF824000830611C4DF82100641C002CE6
:104A9000D2D098480068401C9649086008460768CC
:104AA00005F114010098FFF7A5FE022412E007F0BB
:104AB000030060B9C4F1010305F1140202EBC30164
:104AC000C4F101025DF82200FFF794FE00E003E06C
:104AD000BF08641C012CEAD900BF687A40F00100CD
:104AE0006872404605F0D8FE0020BDE8F88370B536
:104AF00004462CB940F2AB127F4943A0FEF74EFAB0
:104B00002046FFF739F80A2805D04FF4D6727A49C3
:104B100043A0FEF743FA607A00F0010010B94FF0AD
:104B2000FF3070BD00BF7548006818B1204673495A
:104B30000968884700BF05F0ABFE05462046FFF731
:104B400095FE284605F0A8FE607A20F0010060720C
:104B50000020E6E770B504460E4615462CB94FF422
:104B6000E772674928A0FEF719FA2046FFF704F814
:104B70000A2805D040F2CF12614929A0FEF70EFAAB
:104B80004EB1012E04D0022E08D0032E10D10AE01F
:104B9000606A28600CE02868606209E0607A20F0B2
:104BA0000200607204E0607A40F00200607200BFB0
:104BB00000BF002070BD70B500BF00BFFBF7A1FAB9
:104BC000054605F065FE0646C3E049480068A0F1C9
:104BD0001404A06A281A6FF0004188420CD200BF6A
:104BE0000648006818B1204604490968884700BF94
:104BF0002046FFF73BFE85E0AAE0000020010020F0
:104C000024010020A173010874696D657220213DA3
:104C10002052545F4E554C4C00000000AF73010809
:104C200072745F6F626A6563745F6765745F7479DD
:104C30007065282674696D65722D3E706172656EAF
:104C40007429203D3D2052545F4F626A6563745F52
:104C5000436C6173735F54696D65720072745F6F4A
:104C6000626A6563745F69735F73797374656D6F8E
:104C7000626A656374282674696D65722D3E706181
:104C800072656E7429000000BF73010872745F6F53
:104C9000626A6563745F69735F73797374656D6F5E
:104CA000626A656374282674696D65722D3E706151
:104CB00072656E7429203D3D2052545F46414C532D
:104CC00045000000CF730108E800002074696D659D
:104CD000722D3E696E69745F7469636B203C20526B
:104CE000545F5449434B5F4D4158202F2032000000
:104CF0001801002028010020DE730108EC000020CC
:104D0000EC730108D4E907108847FBF7FAF9054668
:104D100000BF2548006818B1204623490968884724
:104D200000BF00BF00BF607A00F0020058B1607A97
:104D300000F0010038B1607A20F001006072204676
:104D4000FFF738FE05E0607A20F00100607200E0B5
:104D500005E0164800F01FF800283FF436AF00BF0A
:104D6000304605F099FD00BF00BF70BD10B50F487B
:104D7000FFF76EFD10BD10B5002405E00B4901EBF7
:104D8000C40000F005F8641C002CF7D010BD70477B
:104D900040600060704701460868884201D10120E8
:104DA00070470020FCE700002401002018010020CB
:104DB000D1A30122D5A107200BF0DAFA1EE0D548D5
:104DC000C06B042816D1D4A30122D0A107200BF078
:104DD000CFFA00200FF016F930B9D4A30122CBA1ED
:104DE00007200BF0C5FA05E0D6A30122C7A10720D2
:104DF0000BF0BEFA44F62060FFF74DFCDFE7D7A3C7
:104E00000122C2A107200BF0B3FA0BE0D848C0681A
:104E100020B14FF47A70FFF73EFC03E04FF47A7054
:104E2000FFF739FCF2E71CB5D2A30122B7A1072096
:104E30000BF09EFA10F017F823E0694601A80FF076
:104E400070FFD249087810F058F9064610F05AF968
:104E5000044622460B46CEA1CF4811F00BFBCB49AE
:104E6000487810F04AF9064610F04CF904462246FC
:104E70000B46C7A1C94811F0FDFA4FF47A70FFF74D
:104E80000AFCDAE738B5054600240DF046FD30B1DE
:104E9000C3A301229DA107200BF06AFA61E040F64E
:104EA000B8320421C4480EF02FFC48B19948C068BC
:104EB000C2A3012295A1009007200BF059FA50E0FF
:104EC0000DF05EFE30B1C6A3012290A107200BF0C9
:104ED0004FFA46E0C8A301228CA107200BF048FA44
:104EE0003EE000200EF07AFE30B1C8A3012287A177
:104EF00007200BF03DFA34E0CBA3012283A1072069
:104F00000BF036FA0DF0B9FB98B1CEA301227FA1C8
:104F100007200BF02DFA0DF0B0FB50B1C9A3012210
:104F20007AA107200BF024FACD480068FFF72EFB8A
:104F300017E08F48C06850B9CAA3012273A10720A7
:104F40000BF016FAC6480068FFF720FB09E0CBA378
:104F500001226EA107200BF00BFACE48FFF79BFB56
:104F6000BFE7CDA3012269A107200BF001FAD148C8
:104F70000068FFF71AFAFEF777FF38BD0FF0F9FD6A
:104F80000022114610460FF012FE26E07848C06855
:104F900088B90022142110460FF009FEC820FFF73F
:104FA0007AFB0022114610460FF001FE4FF44870C4
:104FB000FFF771FB11E00022114614200FF0F7FDFE
:104FC0004FF4FA70FFF767FB0022114610460FF00E
:104FD000EEFD4FF4FA70FFF75EFBD7E71CB5142027
:104FE00016214FF400730022CDE90010AFF27301D7
:104FF000B1A0FFF7B2F9B34908600846006820B1D4
:1050000008460068FFF733F902E04FF0FF301CBD9F
:1050100014200A214FF400730022CDE90010AFF2F2
:105020009B11A9A0FFF799F9A249086008460068FA
:1050300020B108460068FFF71AF902E04FF0FF3090
:10504000E5E7142013214FF400730022CDE900108E
:10505000AFF22D219FA0FFF780F9A2490860084612
:10506000006820B108460068FFF701F902E04FF040
:10507000FF30CCE7142012214FF400730022CDE959
:105080000010AFF2852198A0FFF767F999490860F1
:105090000846006820B108460068FFF7E8F802E01B
:1050A0004FF0FF30B3E732200C214FF400730022A1
:1050B000CDE90010AFF207318FA0FFF74EF9684934
:1050C00008600846006820B108460068FFF7CFF87E
:1050D00002E04FF0FF309AE7002098E789A3012211
:1050E0000AA107200BF044F903E04FF47A70FFF7B0
:1050F000D2FAFAE700BFFEE764617461207461735D
:105100006B206973206F70656E0D0A005B6D6169BD
:105110006E5D00002C0400206461746120555020F5
:105120006973206F70656E0D0A0000006E6F746900
:105130006679206461746120737563636573730DB0
:105140000A2000006E6F74696679206461746120C2
:105150006661696C7572650D0A2000005254432027
:105160007461736B206973206F70656E0D0A0000A7
:10517000D80C00206468743131207461736B20692D
:1051800073206F70656E0D0A00000000800400201F
:1051900025302E3266000000BC070020C607002024
:1051A0006D6F64756C6520696E6974206661696CE9
:1051B0007572650D0A00000088010020206572727A
:1051C0006F723D2564206F6E656E657420696E692F
:1051D00074206661696C757265200D0A000000001C
:1051E0002067707320636F6E666967206661696C03
:1051F0007572650D0A0000006770732072756E206D
:10520000737563636573730D0A0000007173646BDB
:10521000207570646174652074696D6520666169CC
:105220006C7572650D0A00007173646B2075706493
:105230006174652074696D6520737563636573734C
:105240000D0A0000676574206E65742073746174C4
:105250007573206661696C7572650D0A0000000047
:105260003C0100206E657420636F6E6E6563742070
:105270006661696C7572650D0A0000006E657420C8
:10528000636F6E6E65637420737563636573730D0E
:105290000A000000400D03006E657420746872659A
:1052A000616420636C6F73652073756363657373EA
:1052B0000D0A0000300100206C65645F746872653F
:1052C000616400002C0100206E65745F7468726573
:1052D0006164000064687431315F74687265616490
:1052E00000000000340100207274635F746872650E
:1052F0006164000038010020646174615F74687249
:10530000656164006B6579207461736B206973203B
:105310006F70656E0D0A000008B5032001F038FFBC
:1053200000BF7E48806940F001007C4988610846E2
:10533000806900F00100009000BF00BF002211460C
:105340006FF00B0001F036FF002211466FF00A00EB
:1053500001F030FF002211466FF0090001F02AFF32
:1053600000221146501F01F025FF00221146101F98
:1053700001F020FF00220F21901E01F01BFF0022F0
:105380000F21501E01F016FF00BF6548406820F055
:10539000E060634948600846406840F0007048603B
:1053A00000BF08BD30B58FB0002401200590000477
:1053B0000690002007900120099002200C90C10364
:1053C0000D914FF4E0110E9105A802F069F9044621
:1053D000032C1BD12822002105A8FDF73EF902204D
:1053E00005900120099010200A9002200C900021C5
:1053F0000D914FF460110E9105A802F051F9044689
:1054000024B14B22474948A0FDF7C8FD0F2000906A
:1054100002200190002002904FF480600390002051
:1054200004900221684602F097FB044624B15622FC
:105430003C493DA0FDF7B2FD02F08DFC6421B0FBBC
:10544000F1F5284601F02CFF042001F0C9FF0022ED
:105450000F21501E01F0AEFE0FB030BD08B5364929
:105460000968C908354AB1FBF2F14143009100BF18
:1054700000BF00994A1E00920029F9D108BD01B56C
:10548000009901EB81014800FFF7E8FF08BD10B566
:105490000120FFF7F4FF2A480068401C28490860F3
:1054A0000846006810BD7047704710B5FDF764F8F6
:1054B00004F072FEFAF733FEFDF775F810BD10B573
:1054C00004F049FEFFF76EFF1E491F48FDF744FE3A
:1054D000FAF754FE1DA0FDF7D1FC10BD4FF0E022FD
:1054E000526942F21073B2FBF3F250434FF0E022E4
:1054F0009169814209D200BF4FF0E0229269824255
:10550000FAD3401A4FF0E022516900BF4FF0E02279
:1055100092698A1A8242F9D3704700000010024053
:1055200000000140FD730108726574203D3D204874
:10553000414C5F4F4B000000A803002040420F0089
:10554000AC030020004000208811002075617274B7
:1055500031000000704700BFFEE700BFFEE700BF5C
:10556000FEE77047014601F47F40C2B292B90012D3
:105570000C280FD2DFE800F00E06080A0C0F1011FD
:1055800012131415FA487047FA48FCE7FA48FAE78C
:10559000FA48F8E700BF00BF00BF00BF00BF00BF70
:1055A00000BF0020EFE708B500F47F41CAB2002A2F
:1055B0004DD109120C294AD2DFE801F04906152421
:1055C000334243444546474800BFED49896941F0AD
:1055D0000401EB4A91611146896901F004010091CF
:1055E00000BF00BF34E000BFE549896941F0080110
:1055F000E34A91611146896901F00801009100BFF9
:1056000000BF25E000BFDE49896941F01001DC4A96
:1056100091611146896901F01001009100BF00BF3E
:1056200016E000BFD649896941F02001D44A916152
:105630001146896901F02001009100BF00BF07E019
:1056400006E005E004E003E002E001E000E000BF66
:1056500000BF08BD01460020312902D2C94A32F8F4
:10566000110070472DE9F04180460C461546E0B226
:10567000FFF7F0FF06463046FFF774FF08B9BDE8B4
:10568000F0813046FFF76EFF0746EAB20120B040D6
:1056900081B2384601F029F900BFF0E72DE9F04169
:1056A00007460C46E0B2FFF7D5FF05462846FFF750
:1056B00059FF10B90020BDE8F0812846FFF752FFDE
:1056C00006460120A84081B2304601F006F9F2E713
:1056D0002DE9FF4180460D461446E8B2FFF7BAFFB8
:1056E00006463046FFF73EFF08B9BDE8FF81304669
:1056F000FFF759FF0120B0400090012001900020E9
:10570000029003200390012C02D10020019011E0AF
:10571000022C04D100200190012002900AE0032C09
:1057200004D1002001900220029003E0042C01D15A
:10573000112001903046FFF715FF0746694600F03B
:10574000CDFE00BFD1E72DE9F05F83460D4616463A
:105750001F46DDF828804FF0FF34E8B2FFF77AFFEC
:1057600081464846FFF7FEFE10B90620BDE8F09FCF
:1057700009F0FF04002C01DB102C01D30620F5E713
:1057800005F086F8824604EB44007F4931F9200099
:10579000A84219D104EB440001EB80004068B842F4
:1057A00012D104EB440001EB80004088B0420BD1E1
:1057B00004EB440001EB80008068404504D1504672
:1057C00005F06AF80020D1E704EB44006E4931F996
:1057D0002000401C20B1504605F05EF80720C5E7C8
:1057E00028B204EB4401684A22F8210004EB44008B
:1057F000114601EB8000476004EB440102EB81019C
:105800004E8004EB4400114601EB8000C0F8088094
:10581000504605F041F80020A8E72DE9F041804608
:105820000D464FF0FF34E8B2FFF714FF064630464E
:10583000FFF798FE10B90620BDE8F081F4B2002C05
:1058400001DB102C01D30620F6E705F021F807460E
:1058500004EB44004C4931F92000401C20B9384683
:1058600005F01AF80020E7E74FF0FF3004EB4401A1
:10587000454A22F82100002004EB440102EB81019B
:10588000486004EB440102EB8101488004EB4401D1
:1058900002EB81018860384604F0FEFF0020CBE770
:1058A0002DE9FF5F8246884617464FF0FF3508F026
:1058B000FF00FFF7CFFE06463046FFF753FE18B94C
:1058C000062004B0BDE8F09F012F68D1F5B2002D8D
:1058D00001DB102D01D30620F3E704F0D9FF814648
:1058E00005EB4500284931F92000401C20B9484605
:1058F00004F0D2FF0620E4E7244800EB850430469C
:10590000FFF751FE0120B04000900320039005EB0B
:1059100045001D4901EB8000408820B1012807D0D7
:1059200002280FD109E0022002901948019009E0F5
:10593000012002901748019004E0002002901648D0
:10594000019000BF00BF3046FFF70CFE834669465A
:1059500000F0C4FD94F902000022052101F02AFCA8
:1059600094F9020001F064FC484604F095FF2DE034
:1059700000080140000C01400010014000140140EB
:1059800000100240107401086002002072740108C7
:10599000000011100000211000003110FFE79FB936
:1059A0003146C8B2002801DB102801D3002202E0F2
:1059B000534A02EB800214460CB9062081E794F9A1
:1059C000020001F042FC01E006207AE7002078E7BF
:1059D00010B500224B494CA005F02CF80446204697
:1059E00010BD10B50446204600F063F810BD10B598
:1059F000FCF7C2FD012000F09AFFFCF7D4FD10BDBA
:105A000010B5FCF7B9FD022000F091FFFCF7CBFDCB
:105A100010BD10B5FCF7B0FD042000F088FFFCF7C6
:105A2000C2FD10BD10B5FCF7A7FD082000F07FFFF8
:105A3000FCF7B9FD10BD10B5FCF79EFD102000F07D
:105A400076FFFCF7B0FD10BD10B5FCF795FD2020EA
:105A500000F06DFF402000F06AFF802000F067FF3B
:105A60004FF4807000F063FF4FF4007000F05FFFB0
:105A7000FCF799FD10BD10B5FCF77EFD4FF480607A
:105A800000F055FF4FF4006000F051FF4FF48050DC
:105A900000F04DFF4FF4005000F049FF4FF48040FC
:105AA00000F045FF4FF4004000F041FFFCF77BFDA4
:105AB00010BD70B50546002406E00120A040A842B4
:105AC00000D103E0601C84B2102CF6DB00BF102C68
:105AD00000D170BD04EB44000C4901EB800040682C
